:020000041004E6
:10000000109803300D040410150404101704041094
:1000100000000000000000000000000000000000E0
:10002000000000000000000000000000290404108F
:1000300000000000000000002B0404102D04041038
:100040002F0404102F0404102F0404102F04041094
:100050002F0404102F0404102F0404102F04041084
:100060002F0404102F0404102F0404102F04041074
:100070002F0404102F0404102F0404102F04041064
:100080002F0404102F0404102F0404102F04041054
:100090002F0404102F0404102F0404102F04041044
:1000A0002F0404102F0404102F0404102F04041034
:1000B0002F0404102F0404102F0404102F04041024
:1000C0002F0404102F0404102F0404102F04041014
:1000D0002F040410692804102F0404102F040410A6
:1000E0002F0404102F0404102F0404102F040410F4
:1000F0002F0404102F0404102F0404102F040410E4
:100100002F0404102F0404102F0404102F040410D3
:100110002F0404102F0404102F0404102F040410C3
:100120002F0404102F0404102F0404102F040410B3
:100130002F0404102F0404102F0404102F040410A3
:100140002F0404102F0404102F0404102F04041093
:100150002F0404102F0404102F0404102F04041083
:100160002F0404102F0404102F0404102F04041073
:100170002F0404102F0404102F0404102F04041063
:100180002F0404102F0404102F0404102F04041053
:100190002F0404102F0404102F0404102F04041043
:1001A0002F0404102F0404102F0404102F04041033
:1001B0002F0404102F0404102F0404102F04041023
:1001C0002F0404102F0404102F0404102D250410F4
:1001D0002F0404102F0404102F0404102F04041003
:1001E0002F0404102F0404102F0404102F040410F3
:1001F0002F0404102F0404102F0404102F040410E3
:100200002F0404102F0404102F0404102F040410D2
:1002100000F002F800F0CFF812A030C80838241817
:100220002D18AC4201D100F0C6F80FCCA246AB4667
:100230000CA730CF2D1B083F3F197C427F1E544432
:100240002D090426F441641EAC4201D300F0B3F83A
:100250000126334200D0FB1A3343984754465D468B
:10026000DFE7000098300000B8300000103A02D3F9
:1002700078C878C1FAD8520701D330C830C101D547
:1002800004680C60704700007047000000230024E1
:1002900000250026103A01D378C1FBD8520700D3BD
:1002A00030C100D50B60704710B56E2902D100F047
:1002B00099FA10BD702902D100F0E7FB10BD662944
:1002C00002D102F0D7FD10BD652902D102F0D2FDA6
:1002D00010BD672902D102F0CDFD10BD612902D108
:1002E00002F0D0FD10BD03681B0A01D3802319431F
:1002F000692902D100F040FA10BD642902D100F052
:100300003BFA10BD752902D100F036FA10BD6F29F5
:1003100002D100F065FB10BD782902D100F0A2FBEC
:1003200010BDE92902D100F001FB10BDE42902D182
:1003300000F0FCFA10BDF52902D100F0F7FA10BD6B
:10034000EF2902D100F058FB10BDF82902D100F0CE
:1003500097FB10BD0368DB0901D380231943632990
:1003600002D101F04EF910BD732902D101F051F90B
:1003700010BDE32902D101F05BF910BDF32902D1D0
:1003800001F05EF910BD002010BD1FB50098019965
:1003900000F05DF901F0BAF904000020002102F03C
:1003A00053FD401C60600020002102F037FDE0603A
:1003B0001FBD10B510BD01F082F91146FFF7E5FF32
:1003C00002F05AFC01F016FD03B4FFF7F2FF03BC84
:1003D00002F036FC70B505460C46164602E00FCC1E
:1003E0000FC5103E102EFAD2082E02D303CC03C53F
:1003F000083E042E07D301CC01C5361F03E0217847
:100400002970641C6D1C761EF9D270BD154880479A
:1004100015480047FEE77046EFF30881EFF30982C5
:10042000124B98470047FEE7FEE7FEE7FEE7FEE7D0
:100430000F481049104A114B70470000ABBE104BDB
:100440007446984720477046F04700000D480E4913
:100450000160684608600D48486030BFFEE700BF95
:1004600000BF00BF91250410110204105D2104108B
:10047000D098033010980330D0D803301080033068
:1004800031250410C0020040000001205F04041068
:10049000704770B5064600F0BDF8056830460B3071
:1004A000C408E400B44201D8002070BD68682A4640
:1004B000002818D00168A14211D30B46214608310B
:1004C0008B4208D3436801194B6003681B1B0B6008
:1004D0005160046001E041685160001D70BD02463A
:1004E00040680028E6D12146284600F09BF8002805
:1004F000DCD170BD70B50446051F00F08BF80068B4
:10050000002C1AD0446801E020466468002C01D019
:10051000AC42F9D301680A18AA4204D12A680546F8
:100520008918016000E0456028684119A14205D1A1
:100530006168696021684018286070BD6C6070BD9A
:100540000FB4054910B503AA029800F07DF910BC5C
:1005500008BC04B018470000709803300FB41CB5F5
:10056000084B06AA7B4469460090059800F053F9B1
:1005700004460020694600F061F920461CBC08BC16
:1005800004B01847D5020000F8B5042A2CD383071D
:1005900012D00B78491C0370401C521E83070BD0ED
:1005A0000B78491C0370401C521E830704D00B7843
:1005B000491C0370401C521E8B079B0F05D0C91AA3
:1005C000DF002023DE1B08C90AE0FFF703FFF8BDA8
:1005D0001D4608C9FD401C46B4402C4310C0121FE4
:1005E000042AF5D2F308C91A521EF0D40B78491C1C
:1005F0000370401C521EEAD40B78491C0370401C47
:10060000012AE4D409780170F8BD7047704770473B
:1006100070470000004870471898033070477047D3
:100620007047704738B504460A4600206946C04600
:10063000C046002805D002462046009900F0B0FBD5
:10064000012038BD10B5012001F01FF810BDF8B52C
:10065000C046C046054600200C460C20C046064653
:10066000A819A0420DD9324669460020C046C046AE
:10067000070001D101F009F80098A04200D005461A
:10068000C419FFF7C7FFF61D07460560F008C00054
:100690004619284600F008F8B44204D031463868BC
:1006A000A21B00F07DFBF8BD002101604160704796
:1006B0000C20704770B5044685690068C10601D5F5
:1006C000302600E02026C00707D070BD62683046A3
:1006D000A1689047206A401C20626D1EF6D570BD4F
:1006E00070B5044685690078C00707D170BD62689F
:1006F000A16820209047206A401C20626D1EF6D51C
:1007000070BD09684A0501D540B27047C905FCD5DE
:1007100000B2704709684A0501D5C0B27047C905E3
:10072000FCD580B2704770B50C460546012A05D04D
:100730002878800600D5EA69002302E0012305E05D
:100740005B1C934202D2E05C0028F9D1A869E6184C
:10075000C01AA861286AC01828622846FFF7AAFFB5
:1007600004E06A682078A968641C9047B442F8D312
:100770002846FFF7B5FF70BDF7B50025752910684D
:10078000009914A611D0FFF7BCFF002802DA4042FE
:1007900011A608E0009909688A0701D50FA602E0B2
:1007A000490704D50EA6012501E0FFF7B3FF009F1E
:1007B0000024243704E000F06EFF30313955641C0A
:1007C0000028F8D12B4632462146009800F03FFB26
:1007D000FEBD0000000000002D0000002B00000006
:1007E0002000000011680268006A530501D50870F6
:1007F00009E0D30501D5088005E0130602D5C2172C
:1008000005C100E0086001207047000001694A1C32
:1008100002610878704700B58FB002910021059100
:10082000054901937944039111460490684600F00C
:1008300039F90FB000BD0000E5FFFFFF0A68107036
:10084000521C0A6070470000084B70B50D467B448F
:10085000FFF7E1FF0446284602F0FEF9002802D027
:100860000020C04370BD204670BD0000132400006E
:10087000F7B50446154686B02B487844002703C8D0
:100880003E460090019111E007986A46B100415838
:1008900002A800F0D9FE411C07D02178890603D5B3
:1008A000E269391891420ED83F18761C20788006EC
:1008B00002D5E069B84206DDAE42E5DB0798B1003B
:1008C00040580028E0D1A069C01BA0612046FFF776
:1008D000F1FE154878445A3803C800900020019171
:1008E00016E081006A460798415802A800F0ACFE65
:1008F0000590401C0AD0002505E0626802A8A168A6
:10090000405D90476D1C05988542F6D30498401CC5
:10091000B0420490E5DB206AC01920622046FFF750
:10092000DFFE09B0F0BD000016260000F7B5D21DAD
:100930000025D20815A6D200F52905CA11D0002A33
:1009400005DA00214042914111A60A4608E00099CB
:1009500009688B0701D50FA602E0490701D50EA64D
:1009600001251146009F0024243704E000F032FAEC
:1009700030323A55641C02460A43F7D12B463246C0
:100980002146009800F063FAFEBD00000000000060
:100990002D0000002B0000002000000070B5044670
:1009A0000021243408E05507D2086D0F3035655416
:1009B0005D072A43DB08491C15461D43F3D1046833
:1009C000002310A2250708D520252C400C4304D075
:1009D000C46901230CA2641EC46100F038FA70BD22
:1009E00010B5044621461068FFF794FE0023024626
:1009F0002046FFF7D3FF10BDD21DD108C9000CC996
:100A0000CCE700000000000030000000F8B50F4601
:100A10000188090502D5224C7C4402E0204C7C442C
:100A20000E3405460021243508E016071209360F5A
:100A3000A65D6E541E0732431B09491C16461E4311
:100A4000F3D1224604780023240705D5702F06D061
:100A5000002901D00223113200F0F9F9F8BD012379
:100A60001032F9E770B504460D4621461068FFF7CD
:100A700051FE0023024629462046FFF7C7FF70BDFE
:100A8000D21DD308DB000CCBC0E730B403682024B0
:100A90001268234303600823C36130BC0023B5E719
:100AA00080240000F3B50446002081B02062204677
:100AB000E1688847002872D0252802D06268A168C2
:100AC000ABE0594F00267F442046E1688847202844
:100AD000054608DB312D06D2781920380078002829
:100AE00001D00643F0E7B00701D50420864300207B
:100AF000E0610746A0612A2D0AD0284602F086F957
:100B0000002827D0B8000019303D0090856119E019
:100B10000298BA00121902C8916102902046E16859
:100B20008847012F054617D1E06900281FDA2020E9
:100B300086431CE000980A218069484300994019C7
:100B4000303888612046E1688847054602F05EF942
:100B50000028EFD1012F0AD02E2D08D12046E168C0
:100B600088470546202006437F1C022FC3DBA0696F
:100B7000002803DA4042A06101200643F00701D0BB
:100B8000102086436C2D0BD0682D09D04C2D3CD005
:100B90006A2D38D0742D38D07A2D36D016E040E04A
:100BA000E1682F4620468847B842054609D16C2F98
:100BB00029D001208002E168064320468847054687
:100BC00004E06C2F1DD0FF2001300643002D28D0FB
:100BD00028464138192803D80120C0020643203591
:100BE000204626602946029A1646FFF75DFB00283C
:100BF00010D001280BD0F61DF008C000083002907C
:100C000055E74020E1E78020D5E70020D3E7361DF7
:100C100002964CE762682846A1689047206A401C0B
:100C200044E7206AFEBD0000FA2300000022030909
:100C30008B422CD3030A8B4211D300239C464EE0F7
:100C400003460B433CD4002243088B4231D30309B3
:100C50008B421CD3030A8B4201D394463FE0C30965
:100C60008B4201D3CB01C01A524183098B4201D37D
:100C70008B01C01A524143098B4201D34B01C01A68
:100C8000524103098B4201D30B01C01A5241C308E0
:100C90008B4201D3CB00C01A524183088B4201D34F
:100CA0008B00C01A524143088B4201D34B00C01A3B
:100CB0005241411A00D201465241104670475DE050
:100CC000CA0F00D04942031000D3404253409C4613
:100CD000002203098B422DD3030A8B4212D38901D0
:100CE000FC2212BA030A8B420CD3890192118B4267
:100CF00008D3890192118B4204D389013AD0921111
:100D000000E08909C3098B4201D3CB01C01A5241CB
:100D100083098B4201D38B01C01A524143098B4294
:100D200001D34B01C01A524103098B4201D30B017D
:100D3000C01A5241C3088B4201D3CB00C01A5241A2
:100D400083088B4201D38B00C01A5241D9D2430889
:100D50008B4201D34B00C01A5241411A00D20146C6
:100D60005241104663465B1001D34042002B00D530
:100D70004942704763465B1000D3404201B50549C4
:100D8000002802DC491C084000E00846C046C04676
:100D900002BD00BFFFFFFF7F00487047109803307F
:100DA00010B50346406801E003464068002801D0C2
:100DB0008842F9D31868C3188B4206D0CB1CD808D8
:100DC000C000001D411A521A0146081D0A60FFF7B3
:100DD00091FB10BD0B4670B5024689078008084399
:100DE00019469D08141AA941250908070543080951
:100DF0002C194841250A01060D43010A2C194141CD
:100E0000200C0D0428430D0C00194D410021401900
:100E10004D41C00869070843E908840F8D00254348
:100E2000840024184D4124196D41121BAB4107E089
:100E30000925ED432C11521963410024401C6141E6
:100E40001C460A250026551BB441F1D270BDFFB5E2
:100E500004460D4681B0243000902168880604D5F0
:100E60001022E0699143216000E00120A84201DDE9
:100E7000471B00E000270498A1697A191018081A86
:100E8000A0612078C00602D42046FFF713FC00269C
:100E900008E003986268A168805D9047206A401C62
:100EA000761C206204988642F3DB2078C0060AD5BF
:100EB0002046FFF7FFFB06E06268A16830209047FC
:100EC000206A401C206238467F1E0028F4DC07E0C0
:100ED00000986268A168405D9047206A401C2062CB
:100EE00028466D1E0028F3DC2046FFF7F9FB20782A
:100EF000000602D5022005B0F0BD0120FBE700008E
:100F0000FFB50C461E468FB003CA089009914F00EA
:100F10007D0D00D16D1E002108460020C046032132
:100F2000099A89050840002A03DA820080184008DF
:100F30000840800D01280A9002DD0020C0430A907D
:100F4000089807430DD0F048F04928184843071483
:100F5000189800281DD07542291E1DDD0A984242AE
:100F60001BE01898012802D00020302104E0002066
:100F7000F24305E02154401CB042FBDB3046002226
:100F8000189B002121540F998B600A60486013B0B0
:100F9000F0BDBD1B6D1CDFE70A9A002900DA69422B
:100FA0000BA800F0FBFB0BAB07CB03AB07C3089907
:100FB000099800F05FFC6B4607C30146D448091846
:100FC000002D00910BDDD24903980A9A494240183E
:100FD000002303A90390684600F0BCFE08E00399D3
:100FE0000A9A0023081803A90390684600F05CFEE3
:100FF0006B4607C30004000C03D00020C043410827
:1010000000E01046189A002A03D0002200921546EC
:101010001EE0751E05D4FFF7DDFE303262556D1EF1
:10102000F9D501220843079602D000227F1C04E074
:101030002078302801D100227F1E002A069787D011
:101040001EE0112D07DAFFF7C5FE303262556D1C28
:1010500002460A43F5D1084303D00098002819D06E
:101060000EE00021681E05E0235C625C635422549C
:10107000401E491C8142F7DBA81B401E07950690C5
:10108000079A18990020A0540F98079B069A816030
:101090000CC07CE711260020189059E7D21DF0B54E
:1010A0000D460446D10893B0C90003C90C900D91B8
:1010B00001F096FE02460D98C00F01D02D2007E0EA
:1010C0002068810701D52B2002E04007C00F4001B6
:1010D000032A0F9001D0072A05DB03462946204644
:1010E00000F018FB0EE12078800601D5E76900E0EA
:1010F00006272846652D04D0662814D0672D69D1AF
:101100002DE00020112F009001DB112300E07B1C5B
:101110000CAA03A910A8FFF7F3FE11990026109856
:101120007D1C0E9142E001203B460CAAC0070B90AB
:101130000120009003A910A8FFF7E2FE119D12986C
:101140001099002600280E9501D1781C0D18781BE7
:1011500002D446427D1C761EE81B00903AE0012F27
:1011600000DA01270020112F009001DD112300E09B
:101170003B460CAA03A910A8FFF7C2FE11993D46F1
:10118000109800260E91217809070BD40E99A942D8
:1011900000DA0D4603A9012D04DD4A19203AD27F59
:1011A000302A06D0B84201DA011D04DA012100918B
:1011B0000FE06D1EEFE7002802DC86192D1A03E010
:1011C000411CA94200DD0D46801B401C00900120FF
:1011D000C0070B902078000705D40098A84202DBD6
:1011E0000020C043009069460020C8720B9801217E
:1011F00002AF0337C907884225D0022010902B2068
:1012000011900B9800280BDA40420B902D20119082
:1012100006E00B9800F03FFA30317F1E0B903970DA
:101220001099481E00291090F3DC0B980028F0D18B
:1012300011987F1E38702088000501D5452000E0F8
:1012400065207F1E387001A8C01BC01D0B900F9831
:10125000002800D0012041190098C01709180B98E8
:101260000818A169081A401EA0612078C00602D49F
:101270002046FFF71FFA0F98002805D06268A16882
:101280009047206A401C20622078C00625D5204661
:10129000FFF710FA21E0002E07DB0E98B04204DDC4
:1012A00003A86268805DA16802E06268A1683020DE
:1012B0009047206A761C401C20620098401E00283F
:1012C00000900AD100F022FAC06862680168405CB0
:1012D000A1689047206A401C206228466D1E0028A5
:1012E000D9DC07E062683878A1687F1C9047206AE3
:1012F000401C20620B99481E00290B90F2DC20460E
:10130000FFF7EEF9032042E601FCFFFF104D00005D
:10131000E1DFFFFFD21DF0B504460D46D0088DB0C9
:10132000C000466807683146384601F059FD02465C
:10133000F00F01D02D2307E02068810701D52B2372
:1013400002E04007C00F43016846002B037001D044
:10135000012000E00020032A0A9001D0072A04DBC4
:101360002946204600F0D6F92DE12078800601D4E8
:101370000D2500E0E5697000400D0D2D01904BDA60
:10138000300D00210B9008460020C046032189053E
:101390000840002E05DA82008018C20F1018401095
:1013A00008408015012801DD0020C043A90000236A
:1013B000182906D39C460A460123183A1B07D34036
:1013C00003E001221205CA4094460C31202902D3C1
:1013D0003A46203900E032468A40002802DD002AE1
:1013E00006D119E0002817D10121C9078A4213D379
:1013F000194663467F185E41002806D10120C007C8
:10140000824202D1084687439E430B98310D8142A8
:1014100002D00198401C01902088000502D5714936
:10142000794402E06F49794419396B460A983022B1
:101430001A540A980A7C401C1A54401C0A900198BD
:10144000002801DC302000E031201872019A0120D0
:10145000002A02D0644BD21804E072003A4302D052
:10146000614A521C0192002D02DC2278120703D53A
:101470006A462E20507202200022864694460CE0D6
:1014800032033601120F6D1E8B5C02AA13546246A2
:10149000521C401C9446052A01DA002DF0DC002283
:1014A00002AE08E03B0F3F01CB5C521C6D1E335473
:1014B000401C082A01DA002DF4DC23689A0601D5C5
:1014C00011E0401E704504DD3218203AD27F302AE8
:1014D000F7D0002807DD3218203AD27F2E2A02D119
:1014E0001A0700D4401E002D03DD3E223254401C5A
:1014F0006D1E497C31540199401C002906DA2D21CA
:10150000471C315401984042019003E02B21471CB5
:10151000315401987D21C900884206DBFFF790FB1A
:101520003030F0557F1C019101E0642808DB019800
:101530006421FFF785FB3030F0557F1C019101E0FD
:101540000A2806DB01980A21FFF77AFB3030F055B4
:101550007F1C01980A21FFF773FB3031F1550A987F
:10156000A1697F1C7A191018081AA0612078C0069A
:1015700002D42046FFF79EF8216A6E460A980818A2
:10158000206204E062683078A168761C90470A986F
:10159000401E0A90401CF5D12078C00602D5204696
:1015A000FFF788F802AE09E03078761C3E280DD0AF
:1015B0006268A1689047206A401C20627F1EF3D2B7
:1015C0002046FFF78DF80DB00320F0BD206A4019CA
:1015D000206203E06268A168302090476D1EEDD361
:1015E000F8E70000C41A000001FCFFFF10B54369D2
:1015F000002B02D0C046C04601E0FFF794F801205E
:1016000010BD1278014624310A7000224A7001226E
:10161000ECE711680022D243E8E710B54369002BDC
:1016200002D0C046C04601E0FFF722F9012010BDFC
:101630001268014624314262002282620122ECE7F4
:1016400011680022D243E8E7F8B516460C46054675
:1016500000F054F80368FF200230C05C012807D076
:10166000FF2C0FD8185D00280CD001202C70F8BD7D
:10167000FF333246214608331868C718284601232D
:10168000B847F8BD0020C043F8BD10B500F0C0FB5E
:1016900000F0B8FB10BD01468008081A02091018B6
:1016A000020A1018020C1018C0088200121852000A
:1016B000891A01E0401C0A390A29FBD27047754695
:1016C000FFF76AFBAE46050069465346C008C000F6
:1016D000854618B020B5FEF7ABFE60BCB6460026C6
:1016E0000027C0C5C0C5C0C5C0C5C0C5C0C5C0C530
:1016F000C0C5403D490849008D46704710B500F00F
:1017000005F8001D10BD00BF4117000000487047DC
:1017100030980330F8B51F46044601230068DB0209
:10172000032601461840072A05DB002801D017A52B
:1017300006E017A504E0002801D016A500E016A5D4
:10174000102081432160A069C01E002FA06101D03C
:10175000401EA0612046FEF7ADFF002F09D038469D
:101760006268A1689047206A401C2062C01C206209
:1017700006E0206AFAE762682878A1686D1C904745
:10178000761EF8D22046FEF7ABFFF8BD4E414E0064
:101790006E616E00494E4600696E6600F7B51646EA
:1017A0008AB0334878446C4603467C33C06F5A682D
:1017B0009B680DC42E487844763003AC0DC80DC428
:1017C0003720C001081837211B30FFF739FA0546CA
:1017D0000C46803D1B3C02D56442012000E0002005
:1017E0000027099010E0E0070CD00C202049784336
:1017F000794432464C3941186846012300F054FAC6
:101800006B4607C364107F1C002CECD1184F7F443B
:101810002E3F16E0E80712D02001C0190EC806912D
:10182000089307920068F04201D198190890324657
:10183000012306A903A800F037FA03AB07C36D1014
:10184000641C002DE6D10998002806D0324669466E
:10185000012303A800F07EFA05E001233246694621
:1018600003A800F021FA0A9B07C30DB0F0BD0000E9
:1018700054170000034640000A4610B5400D0BD037
:101880000121C9070F24A40200191C036408214385
:10189000540D2143D20207E000210120F2E7D40FCA
:1018A000490021435200401E0029F8DADB0FDB0714
:1018B000184310BDFFB50D46144685B04868516801
:1018C00001F076FA00910190A868A16801F070FA21
:1018D00002910390A868616801F06AFA029A1218EE
:1018E0008242029201D2012000E00020019A0B18EE
:1018F000D2180028019202D08A4202D903E08A421B
:1019000001D2012000E000200099081800906868CA
:10191000A16801F04DFA029A12188242029201D295
:10192000012000E00020019A0B18D2180028019233
:1019300002D08A4202D903E08A4201D2012000E0AB
:10194000002000990818009028682168400049008C
:10195000400849084018FA49471814E00199400026
:10196000C90F08430090019802994000C90F08432D
:101970000190029803994000C90F08430290039810
:1019800040007F1E039000980028E7DA089800289E
:1019900001D0EC4E00E00026B74201DA012000E061
:1019A0000020002804902AD0F71BF806C00E15D09E
:1019B000029B2021091A039A8B401A430392029A30
:1019C000019BC2408B401A430292019A009BC24085
:1019D0008B4000991A430192C14000917B110DD0B8
:1019E0006F460320C11A03D500218200B95003E0DD
:1019F0008A008100BA587A50401EF3D537460398C2
:101A00000299002800D00120014308980291002883
:101A100008460CD0002800D001200199019A490500
:101A200008430121D20AC902D202019200E0012139
:101A30000E9B0122D207012B02D0002B03D013E012
:101A4000002807D120E0904204D890420CD1019B9D
:101A50000B4209D0019B5918019105D10099491CED
:101A6000009101D17F1C009200280DD01021084662
:101A70000020C0460498002806D00F98002803D004
:101A8000082108460020C04628682168019B009A6A
:101A90004840C10F0598C90739430EC009B0F0BDD1
:101AA000FFB587B0099A089808995368926840680A
:101AB000896896460022039317469446089A12684E
:101AC0005300099A5B081268520052089A1A9E4BFA
:101AD000D4180A9A002A01D0352200E0402206924A
:101AE0000022012315460492DB07059324E0002D14
:101AF00005D175460346039E4D1BB34109D3754678
:101B00006646039B491B049D9841059B7519AC468D
:101B10005F4163463B4308D0059B049EDD07760882
:101B20002E435B080496059301E0521E641EC50F08
:101B3000ED0749184041521C069B9A42D7DB002D05
:101B400004D17546039A6B1A824101D203200CE03E
:101B5000039A0B466B404240134303D0014303D02A
:101B6000012002E0022000E00020614601910021F6
:101B7000009702910A99002905D06146400201436D
:101B8000704B019102E08007002302909C4201DA31
:101B9000012000E0002007003AD01A1BD006C00E3A
:101BA00015D0029D2021019C091AC5408C40254377
:101BB000029C8C4000D001242543019C0295009D8D
:101BC000C4408D4000992C430194C14000915411B0
:101BD0001DD06D460221002202290CD10320001BDA
:101BE00007E0002804DB8600AE59002E00D0012259
:101BF000401C0328F5DB081B02D588002A5004E0AE
:101C00008000285810438A00A850491EE3D51C467E
:101C10000A98002802980CD0002800D001200199D1
:101C2000019A490508430121D20AC902D202019250
:101C300000E00121109B0122D207012B02D0002BD2
:101C400003D013E0002807D11FE0904204D890424F
:101C50000CD1019B0B4209D0019B5918019105D170
:101C60000099491C009101D1641C009200280CD0FD
:101C7000102108460020C046002F06D011980028E9
:101C800003D0082108460020C04608980999019A07
:101C9000009B006809684840C10F0798C9072143A5
:101CA00082600AC00BB0F0BD00B585B00193009210
:101CB0000A460146002302A8FFF7FCFD02A807C858
:101CC00005B000BDFFB50A461F4685B007990193D0
:101CD00001230091014602A8FFF7ECFD0299039849
:101CE000049ECA0F4900D20700920F2249089202AF
:101CF0008C1A0021002800DB0C46450013486D08B3
:101D0000844214D3079A002A04DA441E0026104D98
:101D1000F64302E004460D460E4610210846002018
:101D2000C046002F03D0042108460020C0462005ED
:101D3000E90A0843009908436905F20A1143ADE630
:101D400002C0FFFF013C0000FF3F0000FF07000052
:101D5000FFFFFF7F00B585B0019300920A46014660
:101D6000002302A8FFF79CFE02A807C8A8E7FFB55A
:101D70000A461F4685B00799019301230091014649
:101D800002A8FFF78DFE02990398049ECA0F49002E
:101D9000D20700920F22490892028C1A00210028D3
:101DA00000DB0C46450011486D08844214D3079AA5
:101DB000002A04DA441E00260D4DF64302E00446D4
:101DC0000D460E46102108460020C046002F03D0C5
:101DD000042108460020C0462005E90A084300996E
:101DE00008436905F20A114358E60000FF070000A6
:101DF000FFFFFF7F10B50446C046C0462046FEF7F1
:101E0000E3FA10BD10B5002801D000F019FF10BD95
:101E100010B5012805D0002103A000F021F8012011
:101E200010BD09A1F8E7000053494752544D454DF4
:101E30003A204F7574206F662068656170206D656B
:101E40006D6F7279000000003A2048656170206D66
:101E5000656D6F727920636F72727570746564005E
:101E600070B505460C460A2000E06D1C00F0ECFE43
:101E7000002D06D028780028F7D102E0641C00F07D
:101E8000E3FE002C02D020780028F7D10A2000F0D1
:101E9000DBFE70BD024670B50A4392072AD11E4D83
:101EA000EE0104C808C9541B9443344017D0D0B283
:101EB000D9B2401A2106014310D190B299B2401A0A
:101EC000210401430AD110021902000A090A401A2A
:101ED0002102014302D1100E190E401A70BD9A4220
:101EE000DFD010BA19BA884201D9012070BD002094
:101EF000C04370BD02780B78401C491C002A09D0F1
:101F00009A4207D102780B78401C491C002A01D064
:101F10009A42EFD0D01A70BD0101010180B5064888
:101F200000F06AF8054800F00FF8054800F00CF8DA
:101F3000044800F009F880BD40420F00B23204109E
:101F400095320410B532041080B582B001900020A3
:101F50000090FFE701980099405C98B1FFE7019875
:101F60000099405C22490860FFE72248006801218F
:101F7000C9050840C00D08B1FFE7F6E70098401C0E
:101F80000090E7E71A490D200860FFE7194800684C
:101F90000121C9050840C00D08B1FFE7F6E7144963
:101FA0000A200860FFE7134800680121C9050840BE
:101FB000C00D08B1FFE7F6E7024800F01DF802B0D7
:101FC00080BDC04620A1070081B00146684601706F
:101FD000007807490860FFE7064800680121C90545
:101FE0000840C00D08B1FFE7F6E701B07047C046F2
:101FF000001007501810075081B0009000990C484D
:10200000006848430B4908600B49002008600B49F1
:1020100005200860FFE709480068C003002801D4D4
:10202000FFE7F8E705490020086001B07047C046A7
:102030000480033014E000E018E000E010E000E06D
:102040000349044808600449032008607047C046FB
:1020500024100750660000300C10075080B588B07F
:1020600007900798B0B1FFE700200690164800F0EF
:10207000BFFA0690184800F065FE069A174903A8B3
:102080000290FEF76BFA029800F05CFE144800F034
:1020900059FE16E00120C1060B4801900B4A00F0E2
:1020A00067FB019801681F221143E0229143016000
:1020B000074A0849116000F095FB019800F0CAFB3F
:1020C000FFE708B080BDC046001005501027000093
:1020D00004100550FFFFFF006C320410BE320410E4
:1020E0008F32041080B582B001900198401C20B955
:1020F000FFE71148FFF728FF08E00198801C20B98E
:10210000FFE70C48FFF720FFFFE7FFE70B480068F9
:1021100060B1FFE7094800900068FEF7EBF900990D
:10212000002008600648FFF70FFFFFE7012002B01C
:1021300080BDC046CE320410E3320410C89803308C
:10214000C132041080B582B0014601A80170007848
:10215000FFF73AFF012002B080BD0000B0B5CAB061
:102160004990489147920020469049984021084064
:1021700080093F903F9868B1FFE749A80078400781
:10218000002803D5FFE74798469002E0489846901C
:10219000FFE7FFE746988169B348FEF7D1F9469813
:1021A00038B1FFE746988069429042980088439092
:1021B000FFE7AE48FEF7C4F94399AD48FEF7C0F912
:1021C0003F9850B9FFE742A8C078C006002804D461
:1021D000FFE7A848FEF7B4F9F7E04398A64988421C
:1021E00004D1FFE7AD48FEF7ABF9EDE04398000BF3
:1021F000052838D1FFE74398C005400F3E9043982B
:102200008006400F3D904398072108403C903C9940
:102210003E9A3D9BA048FEF793F946993D98800071
:1022200008583E9A920089584018419046983C9927
:1022300089004058409042980F90439810900105B3
:102240009048914A11920029129001D4119812904D
:10225000109A0F99129B4098419C019400908B48D2
:10226000FEF76EF9AFE04398400B032836D1FFE745
:1022700043984005C00E3B9043988006400F3D9028
:102280004398072108403C903C993D9A3B9B8148EC
:10229000FEF756F946983D99890040583B994018F9
:1022A000419046983C9989004058409042980B9044
:1022B00043980C9001057348734A0D9200290E90C3
:1022C00001D40D980E900C9A0B990E9B4098419C4E
:1022D000019400906D48FEF733F973E04398000BCA
:1022E000082836D1FFE743984005C00E3B9043983D
:1022F0008006400F3D904398072108403C903C9950
:102300003D9A3B9B6248FEF71BF946983D99890030
:1023100040583B994018419046983C998900405854
:102320004090429807904398089001055548564AB6
:10233000099200290A9001D409980A90089A0799ED
:102340000A9B4098419C019400905048FEF7F8F891
:1023500037E04398000B09282ED1FFE743A8007807
:102360003A9043984005400F3C903C993A9A444833
:10237000FEF7E6F8469880693A99401841904698E9
:102380003C998900405840904298039043980490AB
:1023900001053C483C4A05920029069001D4059865
:1023A0000690049A0399069B4098419C01940090E2
:1023B0003648FEF7C5F803E03048FEF7C1F8FFE7FE
:1023C000FFE7FFE7FFE7FFE7FFE7354800684490D6
:1023D0004498E8B3FFE733492EA83CC93CC03CC948
:1023E0003CC03CC93CC0304919A85422FDF7F2FF5B
:1023F0002E4913A81522FEF7C7F800204590FFE7E5
:102400004598532823D8FFE744984599C840C0070A
:10241000C0B1FFE7459A910019A8415813A802904E
:10242000805C234A82582348FEF78AF8029845992F
:10243000405C2149405881002EA841581F48FEF7B2
:102440007FF804E0FFE74598401C4590D8E7FFE798
:10245000FFE7469800680121084308B1FFE7F8E765
:1024600049984AB0B0BDC046DB310410AC3004100E
:102470005431041005310410ABBE00002E3104109D
:10248000A73104105032041054320410C13004102B
:102490006B3104108A310410C0310410E130041093
:1024A00030F10240FC2F0410A82F0410902F0410CC
:1024B00004F00240EF31041000F0024046310410F5
:1024C00086B00590049100200390FFE703980499DB
:1024D000491E884216DAFFE712480068C00780B13B
:1024E000FFE71148016802A801700078242801D193
:1024F000FFE707E002980599039A531C0393885459
:10250000FFE7E3E70599039A0020009088540399B8
:1025100001200029019001DC00980190019806B08B
:102520007047C0461C00075000000750FFE7FEE759
:1025300083B0029001910092002003B0704780B5F3
:1025400082B00190019800F003F802B080BD000055
:1025500081B00090684600780A280CD1FFE7FFE7B9
:10256000F24800680002002801D5FFE7F8E7F849C3
:102570000D200860FFE7FFE7EC4800680002002834
:1025800001D5FFE7F8E70098F149086001B070470E
:1025900080B5FDF758FFC000002818D4FFE7FFE71B
:1025A0000D49592008601620086088200860FFE760
:1025B000094800680028F3D0FFE7084941F200000D
:1025C000086007490868074A10430860FFE70648A3
:1025D0000649086080BDC04600010040F40100408B
:1025E000040200400040F0FF0000041008ED00E08D
:1025F00081B000900098C06801B07047B0B58CB051
:102600000A904B4808904B4968463CC93CC03CC9BD
:102610003CC00A984849884205D1FFE7534800F07A
:1026200097FB09904DE00A984449884205D1FFE79D
:102630004D4800F08DFB099042E00A9840498842DD
:1026400005D0FFE70A983E49884205D1FFE7454893
:1026500000F07EFB099032E00A983A49884205D0A2
:10266000FFE70A983749884205D1FFE73C4800F068
:102670006FFB099022E00A983349884205D0FFE7B2
:102680000A983249884205D1FFE7344800F060FBE0
:10269000099012E00A982E49884205D0FFE70A986F
:1026A0002C49884205D1FFE72B4800F051FB0990E7
:1026B00002E000200B9038E0FFE7FFE7FFE7FFE7CD
:1026C000FFE70998022827D1FFE70A981A498842AC
:1026D00019D0FFE70A981949884214D0FFE70A98F1
:1026E000194988420FD0FFE70A98184988420AD052
:1026F000FFE70A981649884205D0FFE70A9815496E
:10270000884204D1FFE700F029FB089003E000F0C5
:102710002BFB0890FFE705E00998810068464058C8
:102720000890FFE708980B90FFE70B980CB0B0BD3E
:10273000001BB7008C30041000000540000105406C
:1027400000100550001105500020054000200550E4
:1027500000210540002105500500C0BE040080BED8
:102760000500405F0400005F0300C05E0200805E61
:1027700080B586B00590049103920598FFF73EFF5F
:102780000290002001900090039802994908884225
:1027900003D9FFE70220019012E002980399B0FBF1
:1027A000F1F0019001A8C0780090009838B1FFE7DF
:1027B00001980099491CB0FBF1F00190FFE7FFE799
:1027C00004980099084305990860019805994860A4
:1027D0000298019A0099491C5143B0FBF1F006B0F0
:1027E00080BD000080B586B0059005990020C860C6
:1027F0001748006803900598FFF700FF014603980B
:10280000B0FBF1F1032048430490FFE70598C1684D
:102810000020C90F0129029007D1FFE70498401E4C
:102820000490411E88410290FFE70298C00710B152
:10283000FFE700BFEAE704990120C04300900020B1
:10284000019009B900980190019806B080BDC0467A
:102850000880033081B00090009908680122920737
:102860001043086001B0704710B582B001A9FF2085
:1028700008702D48006841F20011084203D0FFE7BC
:10288000012020B944E00120002841D1FFE7FFE703
:1028900026480168002049040029009006D4FFE77B
:1028A00023480068411E88410090FFE70098C00758
:1028B00068B3FFE7C148006801A908701D480068B7
:1028C00008B9FFE72EE001A80078242809D1FFE726
:1028D00017490020086017490968174A1268885488
:1028E00015E0FFE714480068C0087C280ED8FFE711
:1028F000019A10490B68104804681A550268521C66
:1029000002600968026800208854FFE7C0E7FFE71B
:10291000064800687121084204D0FFE7034971208E
:102920000860FFE702B010BD1C10075018100750D8
:102930000C800330C8980330C498033080B5FA483F
:10294000152100F01DF8252000F064F980BDC04677
:102950000010075081B000900099086940F20022F1
:10296000104308610099486940F200121043486121
:102970000099486843F200021043486001B0704774
:1029800082B001900091009A019948681043486014
:1029900002B07047B0B594B0139012917F4908A867
:1029A0003CC93CC03CC93CC000200790139806902D
:1029B0007B49884237D0FFE706987A49884245D05C
:1029C000FFE706987849884253D0FFE70698774991
:1029D000884261D0FFE70698754988426FD0FFE7CB
:1029E0000698744988427DD0FFE70698724988426C
:1029F00019D0FFE70698CC49884227D0FFE7069810
:102A00006F49884235D0FFE706986E49884243D027
:102A1000FFE706986C49884251D0FFE706986B495A
:102A200088425FD071E06F48059000F091F901464F
:102A30000598119100F09EF910901198042804D186
:102A4000FFE700F08BF90C90FFE75FE0644804902B
:102A500000F07EF901460498119100F08BF9109076
:102A60001198042804D1FFE700F07EF90C90FFE7ED
:102A70004CE05A48039000F06BF90146039811911D
:102A800000F078F910901198042804D1FFE700F0C5
:102A900065F90C90FFE739E04F48029000F058F9D3
:102AA00001460298119100F065F9109011980428E0
:102AB00004D1FFE700F058F90C90FFE726E0454805
:102AC000019000F045F901460198119100F052F98A
:102AD00010901198042804D1FFE700F03FF90C9002
:102AE000FFE713E03A48009000F032F90146009801
:102AF000119100F03FF910901198042804D1FFE7DC
:102B000000F032F90C90FFE700E045E01399002057
:102B1000086313990320C86013998868324A1040EB
:102B200088601198012807D1FFE700F029F9119971
:102B30008A0008A98850FFE7129868B3FFE7119848
:102B4000810008A840581099491CB0FBF1F0129977
:102B50004A088018B0FBF1F0801E079007A8408853
:102B600090B1FFE71198810008A840581099491CBE
:102B7000B0FBF1F01299CA008018B0FBF1F0000927
:102B8000801E1399486206E007980321090708434D
:102B900013994862FFE7FFE714B0B0BD2C30041072
:102BA00000000740001007400020074000300740A9
:102BB0000040074000500740000007500010075039
:102BC00000200750003007500040075000500750C9
:102BD000953DCC7F143D8C7F933CCC6F123C8C6F29
:102BE000913D406F103D006F0FFFF0FF82B00190EC
:102BF00000910198006AFF218843009908430199D8
:102C000008620199486840F600021043486002B02B
:102C10007047000081B00090009800280BD4FFE7B7
:102C200000991F200A46024001209040490989006E
:102C3000024A8850FFE701B07047C04600E100E05B
:102C400081B00090FFE7FEE780B582B00190019867
:102C5000FFF775FC02B080BD81B000900020C0433A
:102C600001B0704780B582B0019000910198FFF7E4
:102C700066FC019802B080BD80B584B0002003904E
:102C8000FFF7DEF92848029042F28051FFF782FEFA
:102C90000298FFF75FFE0298244A11680F231B0475
:102CA000994301235B04C91811601168202319435B
:102CB000D023994311603E21FFF798FFFFF73EFEB6
:102CC000FFF72CF91A4800F061F81A4800F064F890
:102CD00040F2E830FDF7DDFB17490860FFE71648D2
:102CE0000190006840F2E831FFF7EAFB0020FFF7AF
:102CF000B5F90198006800F055F80120FFF7AEF92A
:102D00000198006850B9FFE70D48FFF71DF940F240
:102D1000E830FDF7BEFB0849086003E00748FFF70D
:102D200013F9FFE7DBE7C046001007500810075013
:102D300045210410E5200410C89803307D320410AA
:102D40009E32041003B40148019001BDC97802000D
:102D500003B40148019001BDB978020003B40148F1
:102D6000019001BD9978020003B40148019001BDB2
:102D7000A178020003B40148019001BDC1780200AE
:102D800003B40148019001BDB178020003B40148C9
:102D9000019001BDD978020003B40148019001BD42
:102DA000D178020003B40148019001BDE17802002E
:102DB000F8B5040C8BB2264682B25E4310465843E7
:102DC0000D0C370C360400218019164679416E43EC
:102DD000370C36048019264679416E438919F8BDAF
:102DE0004900CA020243100000D004204A0D01D05D
:102DF00001221043044A490D914201D102210843A6
:102E0000012800D105207047FF07000030380A284C
:102E100001D20120704700207047000010B5002942
:102E20000AD00878002807D005487844FFF732F820
:102E3000002801D0002010BD0248784410BD0000D9
:102E4000F2040000EA04000010B500290AD0087856
:102E5000002807D005487844FFF71CF8002801D067
:102E6000002010BD0248784410BD0000E2040000BC
:102E7000DA04000003B402487844844603BC604787
:102E800021E2FFFF03B402487844844603BC604754
:102E900089E4FFFF00000000000000003031323301
:102EA000343536373839414243444546403058007E
:102EB00030313233343536373839616263646566B0
:102EC000403078000400000800000000000000020C
:102ED0000001000010303132333435363738396173
:102EE000626364656678700030313233343536376A
:102EF00038394142434445465850000002400000E2
:102F0000000000A00000000005400000000000C814
:102F1000000000000C4000000000409C0000000089
:102F2000194000000020BCBE00000000344000003A
:102F3000BFC91B8E00000004B5400000504BCFD02D
:102F40006607E2CF010000006C4100003E8251AAFA
:102F5000DFEEA73401000000D9420000DCB5A0E29A
:102F60003A301F97FFFFFFFFB4450000FD25A0C8C2
:102F7000E9A3C14FFFFFFFFFFF3F000000000080FB
:102F800000000000FF3F0000000000800000000083
:102F9000343C0000444C545C6400747C848C949CED
:102FA000A4ACB4BCC40000000C32041022320410E3
:102FB00000000000000000004B32041040320410FA
:102FC00035320410313204101132041000000000B8
:102FD000063204101C32041016320410273204107A
:102FE0002D3204103A320410643204105B320410A3
:102FF0005F32041058320410443204106832041056
:10300000000000000000000006320410113204101D
:103010005F32041035320410000000000000000090
:1030200000000000000000001C320410001BB7006C
:103030000000000000800000001BB700000000003E
:10304000000000000000000000000000001BB700AE
:103050000000000000800000001BB700000000001E
:10306000000000000000000000000000001BB7008E
:103070000000000000800000001BB70000000000FE
:10308000000000000000000000000000001BB7006E
:1030900000800000000000000000000000093D006A
:1030A000007D000000000000001BB7004861726452
:1030B0004661756C7420416E616C797369733A0A6C
:1030C000005B3078253038785D20307825303478D2
:1030D0002025732030782578205B307825785D0AAC
:1030E000004578656375746520424B5054207769BC
:1030F00074686F75742049434520636F6E6E656315
:103100007465640A004E6F6E2D7365637572652079
:103110004350552074727920746F2066657463681B
:103120002073656375726520636F64650A00556E70
:10313000657870656374656420696E737472756315
:1031400074696F6E0A00436175736564206279204B
:1031500025730A00496E737472756374696F6E200B
:10316000636F6465203D2025780A004C4452482F47
:10317000535452482072743D257820726E3D257854
:1031800020696D6D353D25780A004C44522F53540B
:10319000522072743D257820726E3D257820696D2D
:1031A0006D353D25780A004C4452482F53545248FF
:1031B0002072743D257820696D6D383D25780A00B0
:1031C0004C44522F5354522072743D257820726D16
:1031D0003D257820726E3D25780A0048617264466C
:1031E00061756C742040203078253038780A0025CD
:1031F0007328307825303878292056696F6C6174CF
:10320000696F6E21200050444D41300041504230E2
:103210000053444830005352414D300050444D411A
:10322000310041504231005352414D3100464D432F
:1032300000435243005553424800464C4153480016
:103240004542490053494F52414D004750494F00B4
:103250004C445200535452004B53005359530043B3
:103260005250540053435500435055000A456C6179
:10327000707365642074696D65203A200048656C40
:103280006C6F2066726F6D204D3233353421002013
:103290006D730A240041542B524F4C453000546842
:1032A00065206D657373616765206973204E554CA9
:1032B0004C0041540041542B535441525400256456
:1032C000004D656D6F727920667265656400536F9D
:1032D0006D657468696E672077656E742077726FAC
:1032E0006E67005469636B65742069732070657242
:1032F0006D697373696F6E6C657373004834041085
:1033000000800330100000006C02041058340410D8
:1033100010800330C05800008C0204101C00000014
:1033200043000000F8FFFFFF0C0000000E0000004B
:103330000F0000002E0000001001000043000000FC
:10334000F8FFFFFF004040404040404040404141C6
:10335000414141404040404040404040404040406A
:103360004040404040050202020202020202020204
:103370000202020202202020202020202020200201
:103380000202020202029090909090901010101091
:10339000101010101010101010101010101010102D
:1033A00002020202020288888888888808080808C1
:1033B000080808080808080808080808080808088D
:1033C00002020202400000000000000000000000B5
:1033D00000000000000000000000000000000000ED
:1033E00000000000000000000000000000000000DD
:1033F00000000000000000000000000000000000CD
:1034000000000000000000000000000000000000BC
:1034100000000000000000000000000000000000AC
:10342000000000000000000000000000000000009C
:10343000000000000000000000000000000000008C
:10344000000000000000000001000000300000004B
:08345000006CDC020100000029
:0400000510040211D0
:00000001FF
